:02000000402896
:10000800FF00030E8301B8000A08B9008A017008CE
:10001800A0000B1D21280B11851F20282208003A5B
:10002800031D1D281130210203181C28A10A1D28B0
:10003800A1010130A2002128A2018B1C24288B10C9
:100048002008F00039088A00380E8300FF0E7F0E62
:0200580009009D
:0E005A008312031337088A003608820008005C
:100068002D208A110A128000840AB60A0319B70AD9
:08007800F003031D3428080009
:1000800083120313A101A2017330A3006530A40001
:100090007630A5006F30A6006330A7006530A80059
:1000A0007030A9007530AA006430AB006530AC0038
:1000B0007230AD006D30AE006530AF006F30B00013
:1000C0006C30B1006830B2006130B3007230B400FF
:1000D000B5012330BA008030850086018316850182
:1000E000860180308B00C53081008312810107308A
:1000F0009F008B160B12A101082921083A078400E2
:10010000000886008501502921083A07840000086C
:10011000860001308500502921083A078400000834
:1001200086008501502921083A07840000088600CE
:1001300001308500502921083A0784000008860014
:1001400002308500502921083A0784000008860003
:1001500003308500502921083A07840000088600F2
:100160008501502921083A078400000886000130E3
:100170008500502921083A078400000886000230D3
:100180008500502921083A078400000886000330C2
:100190008500502921083A078400000886000430B1
:1001A0008500502921083A0784000008860085014F
:1001B000502921083A078400000886000130850094
:1001C000502921083A07840000088600850150293B
:1001D00021083A0784000008860001308500502974
:1001E00021083A0784000008860002308500502963
:1001F00021083A0784000008860003308500502952
:1002000021083A0784000008860004308500502940
:100210002108003A03197D282108013A031984288E
:100220002108023A03198C282108033A031993285C
:100230002108043A03199B282108053A0319A32829
:100240002108063A0319AB282108073A0319B228F6
:100250002108083A0319BA282108093A0319C228C3
:1002600021080A3A0319CA2821080B3A0319D2288F
:1002700021080C3A0319D92821080D3A0319E1285D
:1002800021080E3A0319E82821080F3A0319F0282B
:100290002108103A0319F8282108113A03190029F6
:0402A0007C2851293C
:02400E00782117
:00000001FF
